:020000040000FA
:1000000020EF0EF0F76A140FF66E000EF7220900CB
:10001000F5501200636D64310000F76A2A0FF66E26
:10002000000EF7220900F55012000A0D2066696CD7
:100030006520657272205B25735D206E6F7420668B
:100040006F756E64200A0D00F76A580FF66E000E89
:10005000F7220900F55012000D0A2A2A2A2A2053F5
:1000600044202F204D4D432046415431362020520C
:100070006561642044656D6F20666F7220536F6EFA
:100080007369767269202A2A2A2A2000F76A9C0F4F
:10009000F66E000EF7220900F55012000D0A00005E
:1000A000F76AB00FF66E000EF7220900F550120045
:1000B0000D4E6F77204F70656E20434F554E545252
:1000C000592E5458542046696C65206F6E20534455
:1000D0002043617264202000F76AE80FF66E000E7C
:1000E000F7220900F55012000A0D204D4D432069FA
:1000F0006E697469616C697A6564200A0D00F76A3B
:100100000E0FF66E010EF7220900F5501200434F54
:10011000554E5452592E54585400F76A2A0FF66E11
:10012000010EF7220900F55012000A0D20666F70CB
:10013000656E2061732030206661696C656420659E
:1001400072726F723D25550A0D00F76A5A0FF66EEE
:10015000010EF7220900F55012000A0D206F70659C
:100160006E656420617320302066696C652025739C
:100170002077697468207265632073697A65202529
:100180006C75200A0D00F76A960FF66E010EF722C5
:100190000900F55012000A0D206672656164203076
:1001A000206661696C6564206572726F723D2555C9
:1001B0000A0D0000F76AC40FF66E010EF72209005F
:1001C000F55012000A0D20646F6E652077696E6825
:1001D00065782061646A3D20256C75200A0D000059
:1001E000010EEA6E480EE96EEF5011E00C0E016E42
:1001F000BF0E006E0400002EFDD7012EF9D7F70EBA
:10020000006E002EFED700000400EF2EEFD7000C8A
:100210000101776B77510F0807E3C950FF0EC96ED4
:10022000C7A0FED7772BF6D7C9506FC1C9FFC7A0AB
:10023000FED773C179F1C95073C1C9FFC7A0FED7FA
:1002400072C179F1C95072C1C9FFC7A0FED771C18F
:1002500079F1C95071C1C9FFC7A0FED770C179F14A
:10026000C95070C1C9FFC7A0FED7C950950EC96E4D
:10027000C7A0FED7776B7451775D11E2C950FF0EAE
:10028000C96EC7A0FED7C9CF78F17551785D01E17D
:1002900006D07651785D01E102D0772BECD778C19A
:1002A00001F00001000C500E01016F6F63C173F18A
:1002B00062C172F161C171F160C170F1100E746FB1
:1002C000756B400E766F0001A3DF01C064F1010180
:1002D000645301E107D06451400801E103D0000EEE
:1002E000016E0AD063C11FF062C11EF061C11DF032
:1002F00060C11CF0010E016E0001000C510E0101E5
:100300006F6F67C173F166C172F165C171F164C14C
:1003100070F1100E746F756B400E766F000178DF10
:1003200001C06AF101016A5301E10AD06A51400833
:1003300001E103D0000E016E44D0000E016E41D0E9
:100340006E6B6D6B6E5103080FE3C950FF0EC96EE3
:10035000C7A0FED7C9CF6AF16A51FE0801E107D0F4
:100360006D2BD8B46E2BEED7000E016E2AD06C6BBD
:100370006B6B1F5209E11E5207E16C511D5C15E3C6
:1003800003E11C506B5D11E268516B25E96E695108
:100390006C21EA6EC950FF0EC96EC7A0FED7C9CF47
:1003A000EFFF6B2BD8B46C2BE4D7C950FF0EC96E8E
:1003B000C7A0FED7C950FF0EC96EC7A0FED7010E59
:1003C000016E0001000C01014A514C03F3CF01F012
:1003D000F4CF00F04D03F35000264B514C03F35083
:1003E0000020026E0001000C0101746B756B010EA0
:1003F000766FDA6AD96A796F6C0E786F010EEA6EE1
:10040000700EE96E79C1E2FF78C1E1FF76C177F144
:10041000D890E550EE02F3507423F4507523772FF3
:10042000F7D774C1DEFF75C174F1756BD8B0752B49
:10043000782BD8B4792B762B76510508DFE10001B3
:10044000000C016A026A006A036A01014B5102E171
:100450004A5118E0100E4C6FD89048374937003693
:1004600003364B51035C02E14A51005C07E34A51F9
:10047000005ED8A003064B51035ED88001360236D9
:100480004C2FEAD70000000114EF04F00101256BA6
:10049000246B2451010823E324513D0DF350496B93
:1004A000486F220E4825E96E000E4921EA6EEF6A78
:1004B00024513D0DF350496B486F3B0E4825016EAA
:1004C000000E4921036E0150220FE96E000E032039
:1004D000EA6EEC6AED52200EEF6E242BDAD794947C
:1004E0008B84140E486F00017BDE0101246B2451C4
:1004F000130807E3C950FF0EC96EC7A0FED7242B0F
:10050000F6D794948B94140E486F000169DE400E68
:1005100001016F6F736B726B716B706B800E746F18
:10052000010E756F990E766F000172DE01C027F122
:100530000101272D01D00AD02551252B0F5D03E0A5
:1005400002E3A6D703D00A0E016E93D1256B410EAC
:100550006F6F736B726B716B706B800E746F756BFA
:10056000990E766F000154DE01C027F10101275377
:1005700001E117D02551252B0F5D10E00FE3486BEB
:10058000485100013FDD000906E00101482B9EA80B
:10059000FED7AD6EF5D70101DAD703D00B0E016E91
:1005A00068D1636B626B616B200E606F00017BDE54
:1005B000015204E10C0E016E01015BD10101676B78
:1005C000666B656B646B010E696F280E686F0001C6
:1005D00095DE015204E1630E016E01014AD1010171
:1005E0002851EB0803E02851E90801E137D0676B97
:1005F000666B010E656FBE0E646F010E696F280E8B
:10060000686F00017BDE015205E10D0E016E0101F4
:1006100030D1000133C113F132C112F131C111F1F6
:1006200030C110F1D8900101486B1035496F113578
:100630004A6F12354B6F676F4AC166F149C165F168
:1006400048C164F1010E696F280E686F000156DE23
:10065000015205E10E0E016E01010BD1000134C102
:1006600019F133C118F10101185303E119510208BE
:1006700003E00F0E016EFDD035C126F1496B26C196
:1006800048F149C14BF126C14AF119C14DF118C1D8
:100690004CF1000198DE02C007F001C006F037C13E
:1006A00015F136C114F13AC11BF139C11AF13CC13F
:1006B00023F13BC122F13FC117F13EC116F1010107
:1006C00014511025486F15511121496F000E122148
:1006D0004A6F000E13214B6F6F6F4AC16EF149C113
:1006E0006DF148C16CF1736B726B19C171F118C176
:1006F00070F1000179DE03C00BF002C00AF001C006
:1007000009F000C008F019C14BF118C14AF117C136
:100710004DF116C14CF157DE015008240C6E025009
:1007200009200D6E000E0A200E6E000E0B200F6EBB
:10073000D89001011635486F1735496F485110257B
:100740004A6F495111214B6F000E12214C6F000E60
:1007500013214D6F14514A254E6F15514B214F6F88
:10076000000E4C21506F000E4D21516F6F6F50C124
:100770006EF14FC16DF14EC16CF1736B726B19C1AB
:1007800071F118C170F100012FDE03C013F002C037
:1007900012F001C011F000C010F001011A35026E14
:1007A0001B35036E02360336023603360236033635
:1007B00002360336E00E021602501024146E035067
:1007C0001120156E000E1220166E000E1320176EEB
:1007D0001B31216F1A31206F213320332133203315
:1007E000213320330F0E21171451225D486F15510C
:1007F0002359496FD8901635026E1735036E025093
:10080000485D4A6F035049594B6F20514A5D1C6F38
:1008100021514B591D6F1DC149F11CC148F14B6B52
:1008200026C14AF100010DD602C01FF101C01EF120
:1008300001011F510F0804E30BE11E51F40808E207
:100840001F51FE0808E2FF0A03E11E51F50803E20A
:10085000110E016E0ED01851085C186E195109580E
:10086000196E000E0A581A6E000E0B581B6E000E01
:10087000016E0001A0EF0EF00101552D10D1545171
:100880003D0DF3505D6B5C6F290E5C25016E000E13
:100890005D21036E0150220FE96E000E0320EA6E07
:1008A000ECCF5FF1ED52EFCF5EF15E3D08D05F3DE2
:1008B00006D0FF0E596F586F576F566FF0D0636BAD
:1008C000626B616B020E606F0001EDDC015206E1AC
:1008D000230E006E016A026A036A06D201015451B6
:1008E0003D0DF3505D6B5C6F290E5C25016E000EB3
:1008F0005D21036E0150220FE96E000E0320EA6EA7
:10090000ECCF5FF1ED52EFCF5EF1D8905E35026E25
:100910005F35036E02500824606F03500920616F39
:10092000000E0A20626F000E0B20636F676F62C1BA
:1009300066F161C165F160C164F1010E696F5A0E23
:10094000686F0001DBDC015206E1210E006E016AD6
:10095000026A036AC9D1010154513D0DF3505D6B28
:100960005C6F270E5C25016E000E5D21036E015049
:10097000220F016E000E032201C05EF103C05FF181
:1009800054513D0DF350616B606F290E6025016E6F
:10099000000E6121036E0150220FE96E000E03204C
:1009A000EA6EECCF03F0ED52EFCF62F15FC1EAFFE8
:1009B0005EC1E9FF03C0ECFFED5262C1EFFF54518D
:1009C0003D0DF3505D6B5C6F290E5C25016E000ED2
:1009D0005D21036E0150220FE96E000E0320EA6EC6
:1009E0005BC1ECFFED525AC1EFFF54513D0DF35086
:1009F0005D6B5C6F270E5C25016E000E5D21036E42
:100A00000150220FE96E000E0320EA6EECCF03F0D6
:100A1000ED52EFCF5EF103C05FF1606B616B020ED0
:100A20005E5D626F000E0358636F000E6059646F65
:100A3000000E6159656F06C000F007C001F0026A40
:100A4000036A03C069F102C068F107C067F106C01C
:100A500066F1EACF6BF1E9CF6AF16F6F64C16EF1B5
:100A600063C16DF162C16CF103C073F102C072F138
:100A700007C071F106C070F10001B6DC6BC1EAFF7E
:100A80006AC1E9FF145001010024566F155001207E
:100A9000576F16500220586F17500320596F555347
:100AA000D8A4F3D054513D0DF3505D6B5C6F270E0D
:100AB0005C25016E000E5D21036E0150220F016E58
:100AC000000E032201C05EF103C05FF154513D0DE1
:100AD000F350616B606F250E6025016E000E612181
:100AE000036E0150220FE96E000E0320EA6EECCF78
:100AF00003F0ED52EFCF62F15FC1EAFF5EC1E9FFA3
:100B000003C0ECFFED5262C1EFFF636B626B616B80
:100B1000020E606F000153EC01F0015206E1230E5A
:100B2000006E016A026A036ADFD0010154513D0D73
:100B3000F3505D6B5C6F270E5C25016E000E5D212E
:100B4000036E0150220FE96E000E0320EA6EECCF17
:100B50005FF1ED52EFCF5EF1D8905E35026E5F35FA
:100B6000036E02500824606F03500920616F000E6D
:100B70000A20626F000E0B20636F676F62C166F11F
:100B800061C165F160C164F1010E696F5A0E686F51
:100B900000017EEC01F0015206E1210E006E016AB7
:100BA000026A036AA1D0010154513D0DF3505D6BFF
:100BB0005C6F290E5C25016E000E5D21036E0150F5
:100BC000220FE96E000E0320EA6E5BC1ECFFED52CE
:100BD0005AC1EFFF54513D0DF3505D6B5C6F270E12
:100BE0005C25016E000E5D21036E0150220FE96E3F
:100BF000000E0320EA6EECCF03F0ED52EFCF5EF172
:100C000003C05FF1606B616B020E5E5D626F000E90
:100C10000358636F000E6059646F000E6159656F71
:100C200006C000F007C001F0026A036A03C069F160
:100C300002C068F107C067F106C066F1EACF6BF148
:100C4000E9CF6AF16F6F64C16EF163C16DF162C18A
:100C50006CF103C073F102C072F107C071F106C0FC
:100C600070F10001F4EC01F06BC1EAFF6AC1E9FF29
:100C7000145001010024566F15500120576F165073
:100C80000220586F17500320596F54513D0DF350F7
:100C90005D6B5C6F3B0E5C25016E000E5D21036E8B
:100CA0000150220FE96E000E0320EA6EECCF5FF1D7
:100CB000ED52EFCF5EF1636B626B5FC161F15EC1BC
:100CC00060F1000153EC01F0015206E1250E006EC7
:100CD000016A026A036A08D056C100F057C101F0E8
:100CE00058C102F059C103F0000C0101545347E010
:100CF00051C103F050C1E9FF51C1EAFFEFCF55F1F7
:100D000053C103F052C1E9FF53C1EAFFEF50555DF3
:100D10001BE051C103F050C1E9FF51C1EAFFEFCF21
:100D200055F153C103F052C1E9FF53C1EAFFEF503F
:100D3000555D06E2FF0E006E016E026E036E01D07D
:100D4000010E016E1ED00BD051C103F050C1E9FF5E
:100D500051C1EAFFEF5203E1000E016E12D051C102
:100D600003F05051502BD8B4512B53C103F05251C2
:100D7000522BD8B4532B54070001B7D70101000EF2
:100D8000016E000170EF08F001010F513D0DF350AD
:100D9000516B506F290E5025016E000E5121036ECC
:100DA0000150220FE96E000E0320EA6EEC6AED524C
:100DB000EF6A0F513D0DF350516B506F270E5025C8
:100DC000016E000E5121036E0150220FE96E000EDC
:100DD0000320EA6EEC6AED52EF6A13C017F112C0FD
:100DE00016F111C015F110C014F12A6B4F6B1B6B7B
:100DF0001C6B196B186B036A1C511025E96E11519D
:100E00000320EA6EEF502F0826E0036A1C511025DC
:100E1000E96E11510320EA6EEF505C081CE0036A92
:100E20001C511025E96E11510320EA6EEF5213E0B8
:100E3000036A1C511025E96E11510320EA6EEF5030
:100E40002E0809E01B511C5D070803E2140E016E19
:100E5000B6D21C2BD0D71C5304E1010E1C6F1B6FA4
:100E6000CAD71B511C5D03E1150E016EA8D21A6B87
:100E70001A510A080BE3036A1A511F0FE96E010E9B
:100E80000320EA6E200EEF6E1A2BF2D72A6B1A6B34
:100E90001C511B5D20E2036A1B511025E96E1151A4
:100EA0000320EA6EEFCF2EF12E51600806E22E519C
:100EB0007A0803E32E51DF0B01D02E512E6F036A07
:100EC0001A511F0FE96E010E0320EA6E2EC1EFFFCB
:100ED0001B2B1A2BDDD7036A1C511025E96E11510B
:100EE0000320EA6EEF502E082CE1080E1A6F036AF9
:100EF0001B511025E96E11510320EA6EEF5221E0DB
:100F00001A510B081EE31B2B036A1B511025E96EB7
:100F100011510320EA6EEFCF2EF1036A1A511F0F11
:100F2000E96E010E0320EA6E2E51600806E22E5192
:100F30007A0803E32E51DF0B01D02E51EF6E1A2BEE
:100F4000D6D71B2B1BC11CF11C50200806E11D52DB
:100F500004E11E5202E11F520EE0636B626B616B93
:100F6000200E606F000153EC01F0015205E1110EFB
:100F7000016E010124D2000117C167F116C166F1AB
:100F800015C165F114C164F1010E0101696F2F0EE5
:100F9000686F00017EEC01F0015205E10A0E016E5E
:100FA00001010DD2000101011D6B2F51E50801E186
:100FB000FAD02F5331E1506B505100010DEC00F08D
:100FC0000101502B006E00509EA8FED7AD6E0D0E95
:100FD000505DF2E1010EEA6E1F0EE96E000EEF1099
:100FE00008E09EA8FED7EFCFADFFE92AD8B4EA2AE1
:100FF000F5D70F0E536F535100010DEC00F00101B6
:10100000532B006E00509EA8FED7AD6E1D0E535D93
:10101000F2E10B0E016ED3D13A510F0853E12F517B
:101020003F0B1D6F1D51200DF3501827000E192383
:101030000750195D2AE303E11851065C26E20FC14F
:1010400054F1010E556F000117DC03C017F102C007
:1010500016F101C015F100C014F10101143D09D0D1
:10106000153D07D0163D05D0175303E1160E016E4E
:10107000A6D10650185F0750195B18511427195153
:101080001523000E1623172308D01D51200DF350F1
:101090001427000E15231623172317C167F116C155
:1010A00066F115C165F114C164F1010E696F2F0E6F
:1010B000686F00017EEC01F0015205E11F0E016E28
:1010C00001017DD10001010E0101516F2F0E506F02
:1010D000010E536F1F0E526F0B0E546F000105D699
:1010E000015262E13AC12BF101010F513D0DF35064
:1010F000516B506F250E5025016E000E5121036E6D
:101100000150220FE96E000E0320EA6E4AC1ECFF87
:10111000ED5249C1EFFF2B51100B03E0010E2C6F74
:1011200001D02C6B2B51200B02E12B533AE1010E25
:101130002D6F0F513D0DF350516B506F2F0E5025F9
:10114000016E000E5121036E0150220FE96E000E58
:101150000320EA6EEE52EE524EC1ECFFED524DC14D
:10116000EFFFED524CC1EFFFED524BC1EFFF0F51BE
:101170003D0DF350516B506F210E5025016E000E46
:101180005121036E0150220FE96E000E0320EA6E1A
:1011900014C1EFFF15C1ECFF16C1ECFF17C1ECFF46
:1011A00001D02D6B58D00001200E01011827000E30
:1011B00019230750195D2BE303E11851065C27E260
:1011C0000FC154F1010E556F00013CEC04F003C057
:1011D00017F102C016F101C015F100C014F10101B0
:1011E000143D09D0153D07D0163D05D0175303E136
:1011F000170E016EE4D00650185F0750195B1851A6
:10120000142719511523000E1623172306D0200E7C
:101210001427000E152316231723200E1427000E63
:1012200015231623172317C167F116C166F115C1DF
:1012300065F114C164F1010E696F2F0E686F000132
:101240007EEC01F0015205E1200E016E0101B7D0E4
:101250000001A9D601012C2D11D00FC154F1556BFD
:1012600000013CEC04F003C017F102C016F101C00C
:1012700015F100C014F101014F2BBDD5135306E148
:101280001251010803E30C0E016E99D00F513D0D70
:10129000F350516B506F2B0E5025016E000E5121F3
:1012A000036E0150220F016E000E032201C052F1A5
:1012B00003C053F10FC154F1556B00013CEC04F035
:1012C00053C1EAFF52C1E9FF00C0EFFF01C0ECFFCC
:1012D00002C0ECFF03C0ECFF01010F513D0DF350C4
:1012E000516B506F370E5025016E000E5121036E69
:1012F0000150220FE96E000E0320EA6EEE52EE520C
:10130000EC6AED52EF6AED52EF6AED52EF6A0F515F
:101310003D0DF350516B506F330E5025016E000E92
:101320005121036E0150220FE96E000E0320EA6E78
:10133000EE52EE52EC6AED52EF6AED52EF6AED5268
:10134000EF6A0F513D0DF350516B506F3B0E50251E
:10135000016E000E5121036E0150220FE96E000E46
:101360000320EA6E12C1EFFF13C1ECFF0F513D0DD8
:10137000F350516B506F3B0E5025016E000E512102
:10138000036E0150220FE96E000E0320EA6EECCFCF
:1013900053F1ED52EFCF52F1636B626B53C161F1C8
:1013A00052C160F1000153EC01F0015205E10D0E54
:1013B000016E010104D00001000E016E0101000167
:1013C000D9EF0EF001011351016A125D03E212C15F
:1013D00000F00CD0006A080E146F1237003613515B
:1013E000005CD8B0006E0136142FF7D70001000C56
:1013F000015010C112F1640E0101136F0001E2DF10
:1014000000C010F10150300E08E1010111A30ED00F
:1014100011B70CD011B9200E04D001011197119908
:101420001181012601509EA8FED7AD6E10C112F1A8
:101430000A0E136F0001C6DF00C010F10150300E1C
:1014400008E1010111B70BD011A109D011B9200E8B
:101450000001012601509EA8FED7AD6E0101300E9D
:10146000102710519EA8FED7AD6E0001000CEACFE8
:101470001BF1E9CF1AF101011439F009166F162793
:10148000E20F176F320F196F14510F0B1727172721
:101490001927E90F186F1827182713390F0B18276A
:1014A000192718371937191F193713510F0B192717
:1014B0001637070E156F0A0E18071927FDE31707D1
:1014C0001827FDE316071727FDE315071627FDE389
:1014D000010EEA6E150EE96E070E1A151A9DE92621
:1014E000190EE95CD8B41A8DEF50006E08E11ABDF0
:1014F00006D01AB90CD01AB702D0200E03D01A8722
:101500001A99300E002600509EA8FED7AD6EEE5000
:101510001AADE6D7000135EF0FF001010F513D0D77
:10152000F3501B6B1A6F370E1A25016E000E1B212C
:10153000036E0150220FE96E000E0320EA6EEFCF1A
:101540001CF1ECCF1DF1ECCF1EF1ECCF1FF10F51D0
:101550003D0DF350216B206F2F0E2025016E000EE4
:101560002121036E0150220FE96E000E0320EA6E66
:10157000EFCF00F0ECCF01F0ECCF02F0ECCF03F0B6
:1015800003501F5D0FE30BE102501E5D0BE307E10B
:1015900001501D5D07E303E100501C5D03E30A0EEB
:1015A000016EA9D20F513D0DF3501B6B1A6F370E10
:1015B0001A25016E000E1B21036E0150220FE96EE9
:1015C000000E0320EA6EEFCF1CF1ECCF1DF1ECCF43
:1015D0001EF1ECCF1FF10F513D0DF350216B206F29
:1015E0003B0E2025016E000E2121036E0150220FBB
:1015F000E96E000E0320EA6EECCF03F0ED52EFCF60
:1016000000F003C001F0026A036A00501C25226F3B
:1016100001501D21236F02501E21246F03501F21F2
:10162000256F0F513D0DF350276B266F330E262586
:10163000016E000E2721036E0150220FE96E000E8D
:101640000320EA6EEFCF28F1ECCF29F1ECCF2AF19D
:10165000ECCF2BF106C000F007C001F0026A036A6C
:1016600028510026295101222A5102222B510322FE
:101670000350255DD8A08CD00EE10250245DD8A087
:1016800087D009E10150235DD8A082D004E1225126
:10169000005CD8B07DD00FC154F1010E556F000130
:1016A0003CEC04F003C019F102C018F101C017F1BD
:1016B00000C016F10101163D07D0173D05D0183DB9
:1016C00003D0193D01D01AD00F513D0DF3501B6BC3
:1016D0001A6F2B0E1A25016E000E1B21036E01508E
:1016E000220FE96E000E0320EA6E16C1EFFF17C14C
:1016F000ECFF18C1ECFF19C1ECFF03D00B0E016E1B
:10170000FAD10F513D0DF3501B6B1A6F330E1A2592
:10171000016E000E1B21036E0150220F016E000EA0
:10172000032201C01CF103C01DF10F513D0DF35008
:101730001F6B1E6F330E1E25016E000E1F21036EE0
:101740000150220FE96E000E0320EA6EEFCF20F168
:10175000ECCF21F1ECCF22F1ECCF23F106C000F069
:1017600007C001F0026A036A2051002621510122BC
:1017700022510222235103221DC1EAFF1CC1E9FFAD
:1017800000C0EFFF01C0ECFF02C0ECFF03C0ECFFA4
:101790000F513D0DF3501B6B1A6F2B0E1A25016E66
:1017A000000E1B21036E0150220FE96E000E032074
:1017B000EA6EEFCF1CF1ECCF1DF1ECCF1EF1ECCFB8
:1017C0001FF10F513D0DF350216B206F370E202577
:1017D000016E000E2121036E0150220FE96E000EF2
:1017E0000320EA6EEFCF00F0ECCF01F0ECCF02F077
:1017F000ECCF03F000501C25226F01501D21236FF8
:1018000002501E21246F03501F21256F0F513D0DE3
:10181000F350276B266F330E2625016E000E27210D
:10182000036E0150220FE96E000E0320EA6EEFCF27
:1018300000F0ECCF01F0ECCF02F0ECCF03F0005061
:10184000225D126F01502359136F02502459146FF7
:1018500003502559156F15C167F114C166F113C105
:1018600065F112C164F111C169F110C168F10001A3
:101870007EEC01F0015204E10C0E016E01013BD13E
:1018800001010F513D0DF3501B6B1A6F370E1A25D6
:10189000016E000E1B21036E0150220FE96E000E37
:1018A0000320EA6EEFCF1CF1ECCF1DF1ECCF1EF15F
:1018B000ECCF1FF10F513D0DF350216B206F3B0E0C
:1018C0002025016E000E2121036E0150220FE96ECA
:1018D000000E0320EA6EECCF03F0ED52EF501C2512
:1018E000226F03501D21236F000E1E21246F000E56
:1018F0001F21256F0F513D0DF350276B266F2F0EC3
:101900002625016E000E2721036E0150220FE96E7D
:10191000000E0320EA6EEFCF00F0ECCF01F0ECCF29
:1019200002F0ECCF03F02551035C64E30BE124519A
:10193000025C60E307E12351015C5CE303E10050DA
:10194000225D58E20F513D0DF3501B6B1A6F370E9D
:101950001A25016E000E1B21036E0150220F016E2D
:10196000000E032201C01CF103C01DF10F513D0DFB
:10197000F3501F6B1E6F370E1E25016E000E1F21C8
:10198000036E0150220FE96E000E0320EA6EEFCFC6
:1019900020F1ECCF21F1ECCF22F1ECCF23F10F516C
:1019A0003D0DF350256B246F3B0E2425016E000E78
:1019B0002521036E0150220FE96E000E0320EA6E0E
:1019C000ECCF03F0ED52EF502025006E03502121A3
:1019D000016E000E2221026E000E23211DC1EAFFBE
:1019E0001CC1E9FF00C0EFFF01C0ECFF02C0ECFF2B
:1019F000EC6E7FD00F513D0DF3501B6B1A6F2F0E05
:101A00001A25016E000E1B21036E0150220FE96E94
:101A1000000E0320EA6EEFCF1CF1ECCF1DF1ECCFEE
:101A20001EF1ECCF1FF10F513D0DF350216B206FD4
:101A3000370E2025016E000E2121036E0150220F6A
:101A4000E96E000E0320EA6EEFCF00F0ECCF01F05C
:101A5000ECCF02F0ECCF03F000501C5D226F015080
:101A60001D59236F02501E5903501F591051222532
:101A7000E96E11512321EA6EEF6A0F513D0DF350CB
:101A80001B6B1A6F370E1A25016E000E1B21036E99
:101A90000150220F016E000E032201C01CF103C091
:101AA0001DF10F513D0DF3501F6B1E6F2F0E1E25A4
:101AB000016E000E1F21036E0150220FE96E000E11
:101AC0000320EA6EEFCF00F0ECCF01F0ECCF02F094
:101AD000ECCF03F01DC1EAFF1CC1E9FF00C0EFFF1E
:101AE00001C0ECFF02C0ECFF03C0ECFFFF0E016E73
:101AF00002D0000E016E000149EF0FF0006A016A8A
:101B0000026A036A0101246B256B266B276B235144
:101B10002211211120112CE0200E286FD8901C37A3
:101B20001D371E371F3724372537263727372351D0
:101B3000275D08E12251265D05E12151255D02E185
:101B40002051245D0FE32051245F2151D8A0213D75
:101B5000255F2251D8A0223D265F2351D8A0233DE6
:101B6000275FD8800036013602360336282FD6D7B5
:101B70000000010EEA6E240EE96E0001000CE9502F
:101B80000101146F3B0E1B6F9A0E1A6FCA0E196F6C
:101B9000186B0A0E166F13C11FF112C11EF111C18D
:101BA0001DF110C11CF11BC123F11AC122F119C191
:101BB00021F118C120F10001A1DF0150EFCF10F198
:101BC000ECCF11F1ECCF12F1ECCF13F1005213E195
:101BD00001011651010AD8A402D000010CD0145101
:101BE0000CE00F0B165D01E00EE214BF0CD014BD2B
:101BF00004D0200E03D00101146B300E00260050DB
:101C00009EA8FED7AD6E1BC11FF11AC11EF119C1EE
:101C10001DF118C11CF1236B226B216B0A0E206F82
:101C200000016CDF03C01BF102C01AF101C019F101
:101C300000C018F10101162FAED700019FEF0FF081
:101C4000F86AD09EEA6AE96A2A0EAF6E260EAC6E7A
:101C5000900EAB6EC180C182C184C196056A206AB4
:101C6000010E216EC180C182C184C196930E946E13
:101C700094948B8401010F6B0F51000124EC00F050
:101C8000000907E001010F2B9EA8FED7AD6EF4D727
:101C9000000101010F6B0F51000146EC00F000093B
:101CA00007E001010F2B9EA8FED7AD6EF4D700010F
:101CB000040E01010F6FFA0E486F0001F0EC00F006
:101CC00001010F2FF8D70F6B0F51000150EC00F0FE
:101CD000000907E001010F2B9EA8FED7AD6EF4D7D7
:101CE000000101010F6B0F51000146EC00F00009EB
:101CF00007E001010F2B9EA8FED7AD6EF4D70001BF
:101D00000C0E01010F6FFA0E486F0001F0EC00F0AD
:101D100001010F2FF8D7C69A949A94889496310EA1
:101D2000C66E000EC76E0001EC6B01010D6B000169
:101D3000A36BA26B0A0E01010F6F000146EF02F0C8
:101D400001C09FF09F5301E0DED001010F6B0F51E6
:101D500000016CEC00F0000907E001010F2B9EA8C8
:101D6000FED7AD6EF4D70001A76B200EA66FEA6A0E
:101D7000AC0EE96EF2CF0FF1F29E000E7FEC00F098
:101D80000A000900F550EE6E0009FBE101010FBFEA
:101D9000F28E0001A76B200EA66F01010F6B116B75
:101DA000AC0E106FA7C013F1A6C012F10001C4EF72
:101DB00006F001C0A0F0A05321E001010F6B0F510C
:101DC00000018DEC00F001010F2B006E00509EA869
:101DD000FED7AD6E1B0E0F5DF2E19FC010F11B0E22
:101DE000116F0001F8EC09F00A0E9EA8FED7AD6E47
:101DF0000D0E9EA8FED7AD6E86D043D001010F6BAD
:101E00000F510001A5EC00F001010F2B006E0050F6
:101E10009EA8FED7AD6E140E0F5DF2E1EA6AAC0E1D
:101E2000E96E000EEF1008E09EA8FED7EFCFADFFE1
:101E3000E92AD8B4EA2AF5D7160E126F125100011A
:101E4000A5EC00F00101122B006E00509EA8FED7F9
:101E5000AD6E250E125DF2E1100EE96EA7C014F111
:101E6000A6C013F1000137EF0AF0200E9EA8FED79E
:101E7000AD6E0A0E9EA8FED7AD6E0D0E9EA8FED7C3
:101E8000AD6E01010F6B116BCC0E106F00018DEF69
:101E90000AF001C0A0F0A05323E0A03D01D020D063
:101EA00001010F6B0F510001C3EC00F001010F2B7A
:101EB000006E00509EA8FED7AD6E180E0F5DF2E1C9
:101EC000A0C010F11B0E116F0001F8EC09F00A0E12
:101ED0009EA8FED7AD6E0D0E9EA8FED7AD6E13D098
:101EE000EA6ACC0EE96E000EEF1008E09EA8FED75D
:101EF000EFCFADFFE92AD8B4EA2AF5D7A22BD8B4A0
:101F0000A32BA053BEE001010F6B0F510001DAECCF
:101F100000F001010F2B006E00509EA8FED7AD6EA1
:101F2000140E0F5DF2E1410EE96E1BC013F11AC0F1
:101F300012F119C011F118C010F1000120D6200EC5
:101F40009EA8FED7AD6E0A0E9EA8FED7AD6E0D0EF2
:0A1F50009EA8FED7AD6EFFD7030078
:020000040030CA
:0E00000000260A0E000181000FC00FE00F4025
:00000001FF
;PIC18F452
